{
    "_format": "hh-sol-artifact-1",
    "contractName": "Land",
    "sourceName": "contracts/Land..sol",
    "abi": [
        {
            "inputs": [],
            "stateMutability": "nonpayable",
            "type": "constructor"
        },
        {
            "anonymous": false,
            "inputs": [
                {
                    "indexed": false,
                    "internalType": "address",
                    "name": "source",
                    "type": "address"
                },
                {
                    "indexed": false,
                    "internalType": "address",
                    "name": "destination",
                    "type": "address"
                }
            ],
            "name": "LandSelledfromTo",
            "type": "event"
        },
        {
            "anonymous": false,
            "inputs": [
                {
                    "indexed": false,
                    "internalType": "uint256",
                    "name": "propertyid",
                    "type": "uint256"
                },
                {
                    "indexed": false,
                    "internalType": "string",
                    "name": "_landaddress",
                    "type": "string"
                },
                {
                    "indexed": false,
                    "internalType": "uint256",
                    "name": "_surveynumber",
                    "type": "uint256"
                },
                {
                    "indexed": false,
                    "internalType": "string",
                    "name": "_imageurl",
                    "type": "string"
                },
                {
                    "indexed": false,
                    "internalType": "uint256",
                    "name": "_price",
                    "type": "uint256"
                }
            ],
            "name": "addedLand",
            "type": "event"
        },
        {
            "anonymous": false,
            "inputs": [
                {
                    "indexed": false,
                    "internalType": "address",
                    "name": "inspector",
                    "type": "address"
                }
            ],
            "name": "addedLandInspector",
            "type": "event"
        },
        {
            "anonymous": false,
            "inputs": [
                {
                    "indexed": false,
                    "internalType": "string",
                    "name": "_username",
                    "type": "string"
                },
                {
                    "indexed": false,
                    "internalType": "uint256",
                    "name": "_age",
                    "type": "uint256"
                },
                {
                    "indexed": false,
                    "internalType": "string",
                    "name": "_useraddress",
                    "type": "string"
                },
                {
                    "indexed": false,
                    "internalType": "string",
                    "name": "_useradharnumber",
                    "type": "string"
                },
                {
                    "indexed": false,
                    "internalType": "string",
                    "name": "_userpannumber",
                    "type": "string"
                }
            ],
            "name": "registered",
            "type": "event"
        },
        {
            "inputs": [
                {
                    "internalType": "address",
                    "name": "_useraddress",
                    "type": "address"
                }
            ],
            "name": "DisplayLandsofUsers",
            "outputs": [
                {
                    "components": [
                        {
                            "internalType": "uint256",
                            "name": "pid",
                            "type": "uint256"
                        },
                        {
                            "internalType": "string",
                            "name": "landaddress",
                            "type": "string"
                        },
                        {
                            "internalType": "uint256",
                            "name": "surveynumber",
                            "type": "uint256"
                        },
                        {
                            "internalType": "string",
                            "name": "_imageurl",
                            "type": "string"
                        },
                        {
                            "internalType": "uint256",
                            "name": "price",
                            "type": "uint256"
                        },
                        {
                            "internalType": "bool",
                            "name": "verify",
                            "type": "bool"
                        },
                        {
                            "internalType": "bool",
                            "name": "cansell",
                            "type": "bool"
                        }
                    ],
                    "internalType": "struct Land.land[]",
                    "name": "",
                    "type": "tuple[]"
                }
            ],
            "stateMutability": "view",
            "type": "function"
        },
        {
            "inputs": [],
            "name": "WithDrawal",
            "outputs": [],
            "stateMutability": "nonpayable",
            "type": "function"
        },
        {
            "inputs": [
                {
                    "internalType": "address",
                    "name": "inspectoraddress",
                    "type": "address"
                }
            ],
            "name": "addLandInspector",
            "outputs": [],
            "stateMutability": "nonpayable",
            "type": "function"
        },
        {
            "inputs": [
                {
                    "internalType": "uint256",
                    "name": "propertyid",
                    "type": "uint256"
                },
                {
                    "internalType": "string",
                    "name": "_landaddress",
                    "type": "string"
                },
                {
                    "internalType": "uint256",
                    "name": "_surveynumber",
                    "type": "uint256"
                },
                {
                    "internalType": "string",
                    "name": "_imageurl",
                    "type": "string"
                },
                {
                    "internalType": "uint256",
                    "name": "_price",
                    "type": "uint256"
                }
            ],
            "name": "addLands",
            "outputs": [],
            "stateMutability": "nonpayable",
            "type": "function"
        },
        {
            "inputs": [
                {
                    "internalType": "address payable",
                    "name": "useraddress",
                    "type": "address"
                },
                {
                    "internalType": "uint256",
                    "name": "propertyid",
                    "type": "uint256"
                },
                {
                    "internalType": "string",
                    "name": "_landaddress",
                    "type": "string"
                },
                {
                    "internalType": "uint256",
                    "name": "_surveynumber",
                    "type": "uint256"
                },
                {
                    "internalType": "string",
                    "name": "newimageurl",
                    "type": "string"
                },
                {
                    "internalType": "uint256",
                    "name": "newprice",
                    "type": "uint256"
                }
            ],
            "name": "buyLand",
            "outputs": [],
            "stateMutability": "payable",
            "type": "function"
        },
        {
            "inputs": [],
            "name": "contractowner",
            "outputs": [
                {
                    "internalType": "address payable",
                    "name": "",
                    "type": "address"
                }
            ],
            "stateMutability": "view",
            "type": "function"
        },
        {
            "inputs": [],
            "name": "getAllLandDetails",
            "outputs": [
                {
                    "components": [
                        {
                            "internalType": "uint256",
                            "name": "pid",
                            "type": "uint256"
                        },
                        {
                            "internalType": "string",
                            "name": "landaddress",
                            "type": "string"
                        },
                        {
                            "internalType": "uint256",
                            "name": "surveynumber",
                            "type": "uint256"
                        },
                        {
                            "internalType": "string",
                            "name": "_imageurl",
                            "type": "string"
                        },
                        {
                            "internalType": "uint256",
                            "name": "price",
                            "type": "uint256"
                        },
                        {
                            "internalType": "bool",
                            "name": "verify",
                            "type": "bool"
                        },
                        {
                            "internalType": "bool",
                            "name": "cansell",
                            "type": "bool"
                        }
                    ],
                    "internalType": "struct Land.land[]",
                    "name": "",
                    "type": "tuple[]"
                }
            ],
            "stateMutability": "view",
            "type": "function"
        },
        {
            "inputs": [
                {
                    "internalType": "address",
                    "name": "",
                    "type": "address"
                },
                {
                    "internalType": "uint256",
                    "name": "",
                    "type": "uint256"
                }
            ],
            "name": "landdetails",
            "outputs": [
                {
                    "internalType": "uint256",
                    "name": "pid",
                    "type": "uint256"
                },
                {
                    "internalType": "string",
                    "name": "landaddress",
                    "type": "string"
                },
                {
                    "internalType": "uint256",
                    "name": "surveynumber",
                    "type": "uint256"
                },
                {
                    "internalType": "string",
                    "name": "_imageurl",
                    "type": "string"
                },
                {
                    "internalType": "uint256",
                    "name": "price",
                    "type": "uint256"
                },
                {
                    "internalType": "bool",
                    "name": "verify",
                    "type": "bool"
                },
                {
                    "internalType": "bool",
                    "name": "cansell",
                    "type": "bool"
                }
            ],
            "stateMutability": "view",
            "type": "function"
        },
        {
            "inputs": [],
            "name": "landinspector",
            "outputs": [
                {
                    "internalType": "address payable",
                    "name": "",
                    "type": "address"
                }
            ],
            "stateMutability": "view",
            "type": "function"
        },
        {
            "inputs": [
                {
                    "internalType": "string",
                    "name": "_username",
                    "type": "string"
                },
                {
                    "internalType": "uint256",
                    "name": "_age",
                    "type": "uint256"
                },
                {
                    "internalType": "string",
                    "name": "_useraddress",
                    "type": "string"
                },
                {
                    "internalType": "string",
                    "name": "_useradharnumber",
                    "type": "string"
                },
                {
                    "internalType": "string",
                    "name": "_userpannumber",
                    "type": "string"
                }
            ],
            "name": "register",
            "outputs": [],
            "stateMutability": "payable",
            "type": "function"
        },
        {
            "inputs": [
                {
                    "internalType": "address",
                    "name": "",
                    "type": "address"
                }
            ],
            "name": "users",
            "outputs": [
                {
                    "internalType": "string",
                    "name": "username",
                    "type": "string"
                },
                {
                    "internalType": "uint256",
                    "name": "age",
                    "type": "uint256"
                },
                {
                    "internalType": "string",
                    "name": "useraddress",
                    "type": "string"
                },
                {
                    "internalType": "string",
                    "name": "useradharnumber",
                    "type": "string"
                },
                {
                    "internalType": "string",
                    "name": "userpancardnumber",
                    "type": "string"
                },
                {
                    "internalType": "bool",
                    "name": "registered",
                    "type": "bool"
                },
                {
                    "internalType": "bool",
                    "name": "verified",
                    "type": "bool"
                }
            ],
            "stateMutability": "view",
            "type": "function"
        },
        {
            "inputs": [
                {
                    "internalType": "address",
                    "name": "_user",
                    "type": "address"
                },
                {
                    "internalType": "uint256",
                    "name": "_pid",
                    "type": "uint256"
                }
            ],
            "name": "verifyLand",
            "outputs": [],
            "stateMutability": "nonpayable",
            "type": "function"
        },
        {
            "inputs": [
                {
                    "internalType": "address",
                    "name": "_user",
                    "type": "address"
                }
            ],
            "name": "verifyUsers",
            "outputs": [],
            "stateMutability": "nonpayable",
            "type": "function"
        }
    ],
    "bytecode": "0x608060405234801561001057600080fd5b50336000806101000a81548173ffffffffffffffffffffffffffffffffffffffff021916908373ffffffffffffffffffffffffffffffffffffffff16021790555061418b806100606000396000f3fe6080604052600436106100c25760003560e01c8063a87430ba1161007f578063b296907311610059578063b296907314610265578063b82e8e6e1461028e578063c5bf98de146102b7578063d25030aa146102e2576100c2565b8063a87430ba146101dd578063aa63493914610220578063ae8969bf14610249576100c2565b80632d78719e146100c757806358f477d41461010a5780636098c94c14610121578063698d4c701461014c578063859b0f0714610175578063a6ac704e146101b2575b600080fd5b3480156100d357600080fd5b506100ee60048036038101906100e99190612808565b6102fe565b6040516101019796959493929190612902565b60405180910390f35b34801561011657600080fd5b5061011f610487565b005b34801561012d57600080fd5b506101366105ca565b60405161014391906129a0565b60405180910390f35b34801561015857600080fd5b50610173600480360381019061016e9190612808565b6105ee565b005b34801561018157600080fd5b5061019c600480360381019061019791906129bb565b6108ec565b6040516101a99190612bb5565b60405180910390f35b3480156101be57600080fd5b506101c7610c3f565b6040516101d49190612bb5565b60405180910390f35b3480156101e957600080fd5b5061020460048036038101906101ff91906129bb565b61108a565b6040516102179796959493929190612bd7565b60405180910390f35b34801561022c57600080fd5b50610247600480360381019061024291906129bb565b611306565b005b610263600480360381019061025e9190612dc3565b61140f565b005b34801561027157600080fd5b5061028c600480360381019061028791906129bb565b611c18565b005b34801561029a57600080fd5b506102b560048036038101906102b09190612e88565b611d95565b005b3480156102c357600080fd5b506102cc612116565b6040516102d991906129a0565b60405180910390f35b6102fc60048036038101906102f79190612f3b565b61213c565b005b6003602052816000526040600020818154811061031a57600080fd5b90600052602060002090600602016000915091505080600001549080600101805461034490613055565b80601f016020809104026020016040519081016040528092919081815260200182805461037090613055565b80156103bd5780601f10610392576101008083540402835291602001916103bd565b820191906000526020600020905b8154815290600101906020018083116103a057829003601f168201915b5050505050908060020154908060030180546103d890613055565b80601f016020809104026020016040519081016040528092919081815260200182805461040490613055565b80156104515780601f1061042657610100808354040283529160200191610451565b820191906000526020600020905b81548152906001019060200180831161043457829003601f168201915b5050505050908060040154908060050160009054906101000a900460ff16908060050160019054906101000a900460ff16905087565b60008054906101000a900473ffffffffffffffffffffffffffffffffffffffff1673ffffffffffffffffffffffffffffffffffffffff163373ffffffffffffffffffffffffffffffffffffffff1614610515576040517f08c379a000000000000000000000000000000000000000000000000000000000815260040161050c906130f8565b60405180910390fd5b600047905060003373ffffffffffffffffffffffffffffffffffffffff168260405161054090613149565b60006040518083038185875af1925050503d806000811461057d576040519150601f19603f3d011682016040523d82523d6000602084013e610582565b606091505b50509050806105c6576040517f08c379a00000000000000000000000000000000000000000000000000000000081526004016105bd906131aa565b60405180910390fd5b5050565b60008054906101000a900473ffffffffffffffffffffffffffffffffffffffff1681565b600160009054906101000a900473ffffffffffffffffffffffffffffffffffffffff1673ffffffffffffffffffffffffffffffffffffffff163373ffffffffffffffffffffffffffffffffffffffff161461067e576040517f08c379a00000000000000000000000000000000000000000000000000000000081526004016106759061323c565b60405180910390fd5b600460008373ffffffffffffffffffffffffffffffffffffffff1673ffffffffffffffffffffffffffffffffffffffff16815260200190815260200160002060050160009054906101000a900460ff1661070d576040517f08c379a0000000000000000000000000000000000000000000000000000000008152600401610704906132ce565b60405180910390fd5b600460008373ffffffffffffffffffffffffffffffffffffffff1673ffffffffffffffffffffffffffffffffffffffff16815260200190815260200160002060050160019054906101000a900460ff1661079c576040517f08c379a000000000000000000000000000000000000000000000000000000000815260040161079390613360565b60405180910390fd5b6000805b6002805490508110156107f05782600282815481106107c2576107c1613380565b5b906000526020600020906006020160000154036107dd578091505b80806107e8906133de565b9150506107a0565b506001600360008573ffffffffffffffffffffffffffffffffffffffff1673ffffffffffffffffffffffffffffffffffffffff168152602001908152602001600020828154811061084457610843613380565b5b906000526020600020906006020160050160006101000a81548160ff0219169083151502179055506001600360008573ffffffffffffffffffffffffffffffffffffffff1673ffffffffffffffffffffffffffffffffffffffff16815260200190815260200160002082815481106108bf576108be613380565b5b906000526020600020906006020160050160016101000a81548160ff021916908315150217905550505050565b6060600460003373ffffffffffffffffffffffffffffffffffffffff1673ffffffffffffffffffffffffffffffffffffffff16815260200190815260200160002060050160009054906101000a900460ff16806109965750600160009054906101000a900473ffffffffffffffffffffffffffffffffffffffff1673ffffffffffffffffffffffffffffffffffffffff163373ffffffffffffffffffffffffffffffffffffffff16145b806109ec575060008054906101000a900473ffffffffffffffffffffffffffffffffffffffff1673ffffffffffffffffffffffffffffffffffffffff163373ffffffffffffffffffffffffffffffffffffffff16145b610a2b576040517f08c379a0000000000000000000000000000000000000000000000000000000008152600401610a2290613498565b60405180910390fd5b600360008373ffffffffffffffffffffffffffffffffffffffff1673ffffffffffffffffffffffffffffffffffffffff168152602001908152602001600020805480602002602001604051908101604052809291908181526020016000905b82821015610c3457838290600052602060002090600602016040518060e001604052908160008201548152602001600182018054610ac790613055565b80601f0160208091040260200160405190810160405280929190818152602001828054610af390613055565b8015610b405780601f10610b1557610100808354040283529160200191610b40565b820191906000526020600020905b815481529060010190602001808311610b2357829003601f168201915b5050505050815260200160028201548152602001600382018054610b6390613055565b80601f0160208091040260200160405190810160405280929190818152602001828054610b8f90613055565b8015610bdc5780601f10610bb157610100808354040283529160200191610bdc565b820191906000526020600020905b815481529060010190602001808311610bbf57829003601f168201915b50505050508152602001600482015481526020016005820160009054906101000a900460ff161515151581526020016005820160019054906101000a900460ff16151515158152505081526020019060010190610a8a565b505050509050919050565b6060600460003373ffffffffffffffffffffffffffffffffffffffff1673ffffffffffffffffffffffffffffffffffffffff16815260200190815260200160002060050160009054906101000a900460ff1680610ce95750600160009054906101000a900473ffffffffffffffffffffffffffffffffffffffff1673ffffffffffffffffffffffffffffffffffffffff163373ffffffffffffffffffffffffffffffffffffffff16145b80610d3f575060008054906101000a900473ffffffffffffffffffffffffffffffffffffffff1673ffffffffffffffffffffffffffffffffffffffff163373ffffffffffffffffffffffffffffffffffffffff16145b610d7e576040517f08c379a0000000000000000000000000000000000000000000000000000000008152600401610d7590613504565b60405180910390fd5b600060028054905067ffffffffffffffff811115610d9f57610d9e612c98565b5b604051908082528060200260200182016040528015610dd857816020015b610dc5612627565b815260200190600190039081610dbd5790505b5090506000805b600280549050811015610fd05760028181548110610e0057610dff613380565b5b90600052602060002090600602016040518060e001604052908160008201548152602001600182018054610e3390613055565b80601f0160208091040260200160405190810160405280929190818152602001828054610e5f90613055565b8015610eac5780601f10610e8157610100808354040283529160200191610eac565b820191906000526020600020905b815481529060010190602001808311610e8f57829003601f168201915b5050505050815260200160028201548152602001600382018054610ecf90613055565b80601f0160208091040260200160405190810160405280929190818152602001828054610efb90613055565b8015610f485780601f10610f1d57610100808354040283529160200191610f48565b820191906000526020600020905b815481529060010190602001808311610f2b57829003601f168201915b50505050508152602001600482015481526020016005820160009054906101000a900460ff161515151581526020016005820160019054906101000a900460ff161515151581525050838381518110610fa457610fa3613380565b5b60200260200101819052508180610fba906133de565b9250508080610fc8906133de565b915050610ddf565b5060008167ffffffffffffffff811115610fed57610fec612c98565b5b60405190808252806020026020018201604052801561102657816020015b611013612627565b81526020019060019003908161100b5790505b50905060005b828110156110805783818151811061104757611046613380565b5b602002602001015182828151811061106257611061613380565b5b60200260200101819052508080611078906133de565b91505061102c565b5080935050505090565b60046020528060005260406000206000915090508060000180546110ad90613055565b80601f01602080910402602001604051908101604052809291908181526020018280546110d990613055565b80156111265780601f106110fb57610100808354040283529160200191611126565b820191906000526020600020905b81548152906001019060200180831161110957829003601f168201915b50505050509080600101549080600201805461114190613055565b80601f016020809104026020016040519081016040528092919081815260200182805461116d90613055565b80156111ba5780601f1061118f576101008083540402835291602001916111ba565b820191906000526020600020905b81548152906001019060200180831161119d57829003601f168201915b5050505050908060030180546111cf90613055565b80601f01602080910402602001604051908101604052809291908181526020018280546111fb90613055565b80156112485780601f1061121d57610100808354040283529160200191611248565b820191906000526020600020905b81548152906001019060200180831161122b57829003601f168201915b50505050509080600401805461125d90613055565b80601f016020809104026020016040519081016040528092919081815260200182805461128990613055565b80156112d65780601f106112ab576101008083540402835291602001916112d6565b820191906000526020600020905b8154815290600101906020018083116112b957829003601f168201915b5050505050908060050160009054906101000a900460ff16908060050160019054906101000a900460ff16905087565b60008054906101000a900473ffffffffffffffffffffffffffffffffffffffff1673ffffffffffffffffffffffffffffffffffffffff163373ffffffffffffffffffffffffffffffffffffffff1614611394576040517f08c379a000000000000000000000000000000000000000000000000000000000815260040161138b90613596565b60405180910390fd5b80600160006101000a81548173ffffffffffffffffffffffffffffffffffffffff021916908373ffffffffffffffffffffffffffffffffffffffff1602179055507ff246c32c0c4767b8af03ce2d4b0af720d7780dffc7fd2dd7a4b3d4008749c88e8160405161140491906135c5565b60405180910390a150565b600460003373ffffffffffffffffffffffffffffffffffffffff1673ffffffffffffffffffffffffffffffffffffffff16815260200190815260200160002060050160009054906101000a900460ff1661149e576040517f08c379a00000000000000000000000000000000000000000000000000000000081526004016114959061362c565b60405180910390fd5b600085116114e1576040517f08c379a00000000000000000000000000000000000000000000000000000000081526004016114d890613698565b60405180910390fd5b6000805b60028054905081101561156657866002828154811061150757611506613380565b5b90600052602060002090600602016000015414801561154a5750846002828154811061153657611535613380565b5b906000526020600020906006020160020154145b15611553578091505b808061155e906133de565b9150506114e5565b506000600360008973ffffffffffffffffffffffffffffffffffffffff1673ffffffffffffffffffffffffffffffffffffffff16815260200190815260200160002082815481106115ba576115b9613380565b5b906000526020600020906006020160050160019054906101000a900460ff1690508061161b576040517f08c379a000000000000000000000000000000000000000000000000000000000815260040161161290613704565b60405180910390fd5b6000600360008a73ffffffffffffffffffffffffffffffffffffffff1673ffffffffffffffffffffffffffffffffffffffff168152602001908152602001600020838154811061166e5761166d613380565b5b9060005260206000209060060201600401549050803410156116c5576040517f08c379a00000000000000000000000000000000000000000000000000000000081526004016116bc90613770565b60405180910390fd5b60008973ffffffffffffffffffffffffffffffffffffffff16826040516116eb90613149565b60006040518083038185875af1925050503d8060008114611728576040519150601f19603f3d011682016040523d82523d6000602084013e61172d565b606091505b5050905080611771576040517f08c379a000000000000000000000000000000000000000000000000000000000815260040161176890613802565b60405180910390fd5b8973ffffffffffffffffffffffffffffffffffffffff166108fc839081150290604051600060405180830381858888f193505050501580156117b7573d6000803e3d6000fd5b50600360008b73ffffffffffffffffffffffffffffffffffffffff1673ffffffffffffffffffffffffffffffffffffffff16815260200190815260200160002060006118039190612668565b60008490505b600160028054905061181b9190613822565b81101561192a5760026001826118319190613856565b8154811061184257611841613380565b5b90600052602060002090600602016002828154811061186457611863613380565b5b906000526020600020906006020160008201548160000155600182018160010190816118909190613a4c565b5060028201548160020155600382018160030190816118af9190613a4c565b50600482015481600401556005820160009054906101000a900460ff168160050160006101000a81548160ff0219169083151502179055506005820160019054906101000a900460ff168160050160016101000a81548160ff0219169083151502179055509050508080611922906133de565b915050611809565b50600280548061193d5761193c613b34565b5b600190038181906000526020600020906006020160008082016000905560018201600061196a919061268c565b6002820160009055600382016000611982919061268c565b60048201600090556005820160006101000a81549060ff02191690556005820160016101000a81549060ff021916905550509055600360003373ffffffffffffffffffffffffffffffffffffffff1673ffffffffffffffffffffffffffffffffffffffff1681526020019081526020016000206040518060e001604052808b81526020018a8152602001898152602001888152602001878152602001600115158152602001600115158152509080600181540180825580915050600190039060005260206000209060060201600090919091909150600082015181600001556020820151816001019081611a769190613b63565b50604082015181600201556060820151816003019081611a969190613b63565b506080820151816004015560a08201518160050160006101000a81548160ff02191690831515021790555060c08201518160050160016101000a81548160ff021916908315150217905550505060026040518060e001604052808b81526020018a8152602001898152602001888152602001878152602001600115158152602001600115158152509080600181540180825580915050600190039060005260206000209060060201600090919091909150600082015181600001556020820151816001019081611b669190613b63565b50604082015181600201556060820151816003019081611b869190613b63565b506080820151816004015560a08201518160050160006101000a81548160ff02191690831515021790555060c08201518160050160016101000a81548160ff02191690831515021790555050507fd6586e0dbe92b3468f51bf8272a59514389f54c982f418e6a35fe41cdf2a2cd78a33604051611c04929190613c8a565b60405180910390a150505050505050505050565b600160009054906101000a900473ffffffffffffffffffffffffffffffffffffffff1673ffffffffffffffffffffffffffffffffffffffff163373ffffffffffffffffffffffffffffffffffffffff1614611ca8576040517f08c379a0000000000000000000000000000000000000000000000000000000008152600401611c9f9061323c565b60405180910390fd5b600460008273ffffffffffffffffffffffffffffffffffffffff1673ffffffffffffffffffffffffffffffffffffffff16815260200190815260200160002060050160009054906101000a900460ff16611d37576040517f08c379a0000000000000000000000000000000000000000000000000000000008152600401611d2e906132ce565b60405180910390fd5b6001600460008373ffffffffffffffffffffffffffffffffffffffff1673ffffffffffffffffffffffffffffffffffffffff16815260200190815260200160002060050160016101000a81548160ff02191690831515021790555050565b600460003373ffffffffffffffffffffffffffffffffffffffff1673ffffffffffffffffffffffffffffffffffffffff16815260200190815260200160002060050160009054906101000a900460ff16611e24576040517f08c379a0000000000000000000000000000000000000000000000000000000008152600401611e1b90613d25565b60405180910390fd5b600460003373ffffffffffffffffffffffffffffffffffffffff1673ffffffffffffffffffffffffffffffffffffffff16815260200190815260200160002060050160019054906101000a900460ff16611eb3576040517f08c379a0000000000000000000000000000000000000000000000000000000008152600401611eaa90613db7565b60405180910390fd5b600360003373ffffffffffffffffffffffffffffffffffffffff1673ffffffffffffffffffffffffffffffffffffffff1681526020019081526020016000206040518060e00160405280878152602001868152602001858152602001848152602001838152602001600015158152602001600015158152509080600181540180825580915050600190039060005260206000209060060201600090919091909150600082015181600001556020820151816001019081611f739190613b63565b50604082015181600201556060820151816003019081611f939190613b63565b506080820151816004015560a08201518160050160006101000a81548160ff02191690831515021790555060c08201518160050160016101000a81548160ff021916908315150217905550505060026040518060e001604052808781526020018681526020018581526020018481526020018381526020016000151581526020016000151581525090806001815401808255809150506001900390600052602060002090600602016000909190919091506000820151816000015560208201518160010190816120639190613b63565b506040820151816002015560608201518160030190816120839190613b63565b506080820151816004015560a08201518160050160006101000a81548160ff02191690831515021790555060c08201518160050160016101000a81548160ff02191690831515021790555050507f3f9cb8c78ad263cc03755e52b12756eb17acfc7397aebd5a20121f2b190453d58585858585604051612107959493929190613dd7565b60405180910390a15050505050565b600160009054906101000a900473ffffffffffffffffffffffffffffffffffffffff1681565b6012841161217f576040517f08c379a000000000000000000000000000000000000000000000000000000000815260040161217690613eaa565b60405180910390fd5b600061218a86612472565b905060038110156121d0576040517f08c379a00000000000000000000000000000000000000000000000000000000081526004016121c790613f16565b60405180910390fd5b60006121db85612472565b90506003811015612221576040517f08c379a000000000000000000000000000000000000000000000000000000000815260040161221890613f82565b60405180910390fd5b600061222c85612472565b9050600c8114612271576040517f08c379a000000000000000000000000000000000000000000000000000000000815260040161226890613fee565b60405180910390fd5b600061227c85612472565b9050600a81146122c1576040517f08c379a00000000000000000000000000000000000000000000000000000000081526004016122b89061405a565b60405180910390fd5b66038d7ea4c6800034101561230b576040517f08c379a0000000000000000000000000000000000000000000000000000000008152600401612302906140c6565b60405180910390fd5b6040518060e001604052808a815260200189815260200188815260200187815260200186815260200160011515815260200160001515815250600460003373ffffffffffffffffffffffffffffffffffffffff1673ffffffffffffffffffffffffffffffffffffffff16815260200190815260200160002060008201518160000190816123989190613b63565b506020820151816001015560408201518160020190816123b89190613b63565b5060608201518160030190816123ce9190613b63565b5060808201518160040190816123e49190613b63565b5060a08201518160050160006101000a81548160ff02191690831515021790555060c08201518160050160016101000a81548160ff0219169083151502179055509050507fe4fe3717aabc3476a0e3d78dcca10460d162b0c6a7367d9f001d5121e2aa63c2898989898960405161245f9594939291906140e6565b60405180910390a1505050505050505050565b60008060008084519050600092505b8082101561261c57600085838151811061249e5761249d613380565b5b602001015160f81c60f81b9050608060f81b817effffffffffffffffffffffffffffffffffffffffffffffffffffffffffffff191610156124ed576001836124e69190613856565b9250612608565b60e060f81b817effffffffffffffffffffffffffffffffffffffffffffffffffffffffffffff1916101561252f576002836125289190613856565b9250612607565b60f060f81b817effffffffffffffffffffffffffffffffffffffffffffffffffffffffffffff191610156125715760038361256a9190613856565b9250612606565b60f8801b817effffffffffffffffffffffffffffffffffffffffffffffffffffffffffffff191610156125b2576004836125ab9190613856565b9250612605565b60fc60f81b817effffffffffffffffffffffffffffffffffffffffffffffffffffffffffffff191610156125f4576005836125ed9190613856565b9250612604565b6006836126019190613856565b92505b5b5b5b5b508280612614906133de565b935050612481565b829350505050919050565b6040518060e0016040528060008152602001606081526020016000815260200160608152602001600081526020016000151581526020016000151581525090565b508054600082556006029060005260206000209081019061268991906126cc565b50565b50805461269890613055565b6000825580601f106126aa57506126c9565b601f0160209004906000526020600020908101906126c89190612743565b5b50565b5b8082111561273f576000808201600090556001820160006126ee919061268c565b6002820160009055600382016000612706919061268c565b60048201600090556005820160006101000a81549060ff02191690556005820160016101000a81549060ff0219169055506006016126cd565b5090565b5b8082111561275c576000816000905550600101612744565b5090565b6000604051905090565b600080fd5b600080fd5b600073ffffffffffffffffffffffffffffffffffffffff82169050919050565b600061279f82612774565b9050919050565b6127af81612794565b81146127ba57600080fd5b50565b6000813590506127cc816127a6565b92915050565b6000819050919050565b6127e5816127d2565b81146127f057600080fd5b50565b600081359050612802816127dc565b92915050565b6000806040838503121561281f5761281e61276a565b5b600061282d858286016127bd565b925050602061283e858286016127f3565b9150509250929050565b612851816127d2565b82525050565b600081519050919050565b600082825260208201905092915050565b60005b83811015612891578082015181840152602081019050612876565b60008484015250505050565b6000601f19601f8301169050919050565b60006128b982612857565b6128c38185612862565b93506128d3818560208601612873565b6128dc8161289d565b840191505092915050565b60008115159050919050565b6128fc816128e7565b82525050565b600060e082019050612917600083018a612848565b818103602083015261292981896128ae565b90506129386040830188612848565b818103606083015261294a81876128ae565b90506129596080830186612848565b61296660a08301856128f3565b61297360c08301846128f3565b98975050505050505050565b600061298a82612774565b9050919050565b61299a8161297f565b82525050565b60006020820190506129b56000830184612991565b92915050565b6000602082840312156129d1576129d061276a565b5b60006129df848285016127bd565b91505092915050565b600081519050919050565b600082825260208201905092915050565b6000819050602082019050919050565b612a1d816127d2565b82525050565b600082825260208201905092915050565b6000612a3f82612857565b612a498185612a23565b9350612a59818560208601612873565b612a628161289d565b840191505092915050565b612a76816128e7565b82525050565b600060e083016000830151612a946000860182612a14565b5060208301518482036020860152612aac8282612a34565b9150506040830151612ac16040860182612a14565b5060608301518482036060860152612ad98282612a34565b9150506080830151612aee6080860182612a14565b5060a0830151612b0160a0860182612a6d565b5060c0830151612b1460c0860182612a6d565b508091505092915050565b6000612b2b8383612a7c565b905092915050565b6000602082019050919050565b6000612b4b826129e8565b612b5581856129f3565b935083602082028501612b6785612a04565b8060005b85811015612ba35784840389528151612b848582612b1f565b9450612b8f83612b33565b925060208a01995050600181019050612b6b565b50829750879550505050505092915050565b60006020820190508181036000830152612bcf8184612b40565b905092915050565b600060e0820190508181036000830152612bf1818a6128ae565b9050612c006020830189612848565b8181036040830152612c1281886128ae565b90508181036060830152612c2681876128ae565b90508181036080830152612c3a81866128ae565b9050612c4960a08301856128f3565b612c5660c08301846128f3565b98975050505050505050565b612c6b8161297f565b8114612c7657600080fd5b50565b600081359050612c8881612c62565b92915050565b600080fd5b600080fd5b7f4e487b7100000000000000000000000000000000000000000000000000000000600052604160045260246000fd5b612cd08261289d565b810181811067ffffffffffffffff82111715612cef57612cee612c98565b5b80604052505050565b6000612d02612760565b9050612d0e8282612cc7565b919050565b600067ffffffffffffffff821115612d2e57612d2d612c98565b5b612d378261289d565b9050602081019050919050565b82818337600083830152505050565b6000612d66612d6184612d13565b612cf8565b905082815260208101848484011115612d8257612d81612c93565b5b612d8d848285612d44565b509392505050565b600082601f830112612daa57612da9612c8e565b5b8135612dba848260208601612d53565b91505092915050565b60008060008060008060c08789031215612de057612ddf61276a565b5b6000612dee89828a01612c79565b9650506020612dff89828a016127f3565b955050604087013567ffffffffffffffff811115612e2057612e1f61276f565b5b612e2c89828a01612d95565b9450506060612e3d89828a016127f3565b935050608087013567ffffffffffffffff811115612e5e57612e5d61276f565b5b612e6a89828a01612d95565b92505060a0612e7b89828a016127f3565b9150509295509295509295565b600080600080600060a08688031215612ea457612ea361276a565b5b6000612eb2888289016127f3565b955050602086013567ffffffffffffffff811115612ed357612ed261276f565b5b612edf88828901612d95565b9450506040612ef0888289016127f3565b935050606086013567ffffffffffffffff811115612f1157612f1061276f565b5b612f1d88828901612d95565b9250506080612f2e888289016127f3565b9150509295509295909350565b600080600080600060a08688031215612f5757612f5661276a565b5b600086013567ffffffffffffffff811115612f7557612f7461276f565b5b612f8188828901612d95565b9550506020612f92888289016127f3565b945050604086013567ffffffffffffffff811115612fb357612fb261276f565b5b612fbf88828901612d95565b935050606086013567ffffffffffffffff811115612fe057612fdf61276f565b5b612fec88828901612d95565b925050608086013567ffffffffffffffff81111561300d5761300c61276f565b5b61301988828901612d95565b9150509295509295909350565b7f4e487b7100000000000000000000000000000000000000000000000000000000600052602260045260246000fd5b6000600282049050600182168061306d57607f821691505b6020821081036130805761307f613026565b5b50919050565b7f4f6e6c79204f776e65722063616e2057697468647261772074686520416d6f7560008201527f6e74000000000000000000000000000000000000000000000000000000000000602082015250565b60006130e2602283612862565b91506130ed82613086565b604082019050919050565b60006020820190508181036000830152613111816130d5565b9050919050565b600081905092915050565b50565b6000613133600083613118565b915061313e82613123565b600082019050919050565b600061315482613126565b9150819050919050565b7f4661696c656420746f2077697468647261772065746865727300000000000000600082015250565b6000613194601983612862565b915061319f8261315e565b602082019050919050565b600060208201905081810360008301526131c381613187565b9050919050565b7f4f6e6c79204c616e6420496e73706563746f722063616e20566572696679207460008201527f6865207573657273000000000000000000000000000000000000000000000000602082015250565b6000613226602883612862565b9150613231826131ca565b604082019050919050565b6000602082019050818103600083015261325581613219565b9050919050565b7f55736572206973204e6f74205265676973746572656420746f2067657420566560008201527f7269666965640000000000000000000000000000000000000000000000000000602082015250565b60006132b8602683612862565b91506132c38261325c565b604082019050919050565b600060208201905081810360008301526132e7816132ab565b9050919050565b7f5573657220206973206e6f74205665726966696564205665726966792074686560008201527f2055736572204669727374000000000000000000000000000000000000000000602082015250565b600061334a602b83612862565b9150613355826132ee565b604082019050919050565b600060208201905081810360008301526133798161333d565b9050919050565b7f4e487b7100000000000000000000000000000000000000000000000000000000600052603260045260246000fd5b7f4e487b7100000000000000000000000000000000000000000000000000000000600052601160045260246000fd5b60006133e9826127d2565b91507fffffffffffffffffffffffffffffffffffffffffffffffffffffffffffffffff820361341b5761341a6133af565b5b600182019050919050565b7f596f7572204e6f74205265676973746572656420546f2056696577204c616e6460008201527f2044657461696c73000000000000000000000000000000000000000000000000602082015250565b6000613482602883612862565b915061348d82613426565b604082019050919050565b600060208201905081810360008301526134b181613475565b9050919050565b7f596f7520617265206e6f74207265676973746572656400000000000000000000600082015250565b60006134ee601683612862565b91506134f9826134b8565b602082019050919050565b6000602082019050818103600083015261351d816134e1565b9050919050565b7f4f6e6c7920436f6e7472616374204f776e65722043616e206164642050726f7060008201527f6572747920496e73706563746f72730000000000000000000000000000000000602082015250565b6000613580602f83612862565b915061358b82613524565b604082019050919050565b600060208201905081810360008301526135af81613573565b9050919050565b6135bf81612794565b82525050565b60006020820190506135da60008301846135b6565b92915050565b7f55736572206973204e6f74205265676973746572656420427579204c616e6400600082015250565b6000613616601f83612862565b9150613621826135e0565b602082019050919050565b6000602082019050818103600083015261364581613609565b9050919050565b7f496e76616c69642050726f706572742049640000000000000000000000000000600082015250565b6000613682601283612862565b915061368d8261364c565b602082019050919050565b600060208201905081810360008301526136b181613675565b9050919050565b7f526571756573746564204c616e642043616e742053656c6c6564204e6f770000600082015250565b60006136ee601e83612862565b91506136f9826136b8565b602082019050919050565b6000602082019050818103600083015261371d816136e1565b9050919050565b7f50726f766964656420416d6f756e7420497320496e53756666696369656e7400600082015250565b600061375a601f83612862565b915061376582613724565b602082019050919050565b600060208201905081810360008301526137898161374d565b9050919050565b7f4661696c656420746f2053656e64205472616e73616374696f6e20506c65617360008201527f652054727920416761696e000000000000000000000000000000000000000000602082015250565b60006137ec602b83612862565b91506137f782613790565b604082019050919050565b6000602082019050818103600083015261381b816137df565b9050919050565b600061382d826127d2565b9150613838836127d2565b92508282039050818111156138505761384f6133af565b5b92915050565b6000613861826127d2565b915061386c836127d2565b9250828201905080821115613884576138836133af565b5b92915050565b60008154905061389981613055565b9050919050565b60008190508160005260206000209050919050565b60006020601f8301049050919050565b600082821b905092915050565b6000600883026139027fffffffffffffffffffffffffffffffffffffffffffffffffffffffffffffffff826138c5565b61390c86836138c5565b95508019841693508086168417925050509392505050565b6000819050919050565b600061394961394461393f846127d2565b613924565b6127d2565b9050919050565b6000819050919050565b6139638361392e565b61397761396f82613950565b8484546138d2565b825550505050565b600090565b61398c61397f565b61399781848461395a565b505050565b5b818110156139bb576139b0600082613984565b60018101905061399d565b5050565b601f821115613a00576139d1816138a0565b6139da846138b5565b810160208510156139e9578190505b6139fd6139f5856138b5565b83018261399c565b50505b505050565b600082821c905092915050565b6000613a2360001984600802613a05565b1980831691505092915050565b6000613a3c8383613a12565b9150826002028217905092915050565b818103613a5a575050613b32565b613a638261388a565b67ffffffffffffffff811115613a7c57613a7b612c98565b5b613a868254613055565b613a918282856139bf565b6000601f831160018114613ac05760008415613aae578287015490505b613ab88582613a30565b865550613b2b565b601f198416613ace876138a0565b9650613ad9866138a0565b60005b82811015613b0157848901548255600182019150600185019450602081019050613adc565b86831015613b1e5784890154613b1a601f891682613a12565b8355505b6001600288020188555050505b5050505050505b565b7f4e487b7100000000000000000000000000000000000000000000000000000000600052603160045260246000fd5b613b6c82612857565b67ffffffffffffffff811115613b8557613b84612c98565b5b613b8f8254613055565b613b9a8282856139bf565b600060209050601f831160018114613bcd5760008415613bbb578287015190505b613bc58582613a30565b865550613c2d565b601f198416613bdb866138a0565b60005b82811015613c0357848901518255600182019150602085019450602081019050613bde565b86831015613c205784890151613c1c601f891682613a12565b8355505b6001600288020188555050505b505050505050565b6000613c50613c4b613c4684612774565b613924565b612774565b9050919050565b6000613c6282613c35565b9050919050565b6000613c7482613c57565b9050919050565b613c8481613c69565b82525050565b6000604082019050613c9f6000830185613c7b565b613cac60208301846135b6565b9392505050565b7f596f7572204e6f74205265676973746572656420546f20416464204c616e642060008201527f506c656173652052656769737465720000000000000000000000000000000000602082015250565b6000613d0f602f83612862565b9150613d1a82613cb3565b604082019050919050565b60006020820190508181036000830152613d3e81613d02565b9050919050565b7f596f7572204e6f74205665726669656420546f20416464204c616e642057616960008201527f7420556e74696c6c20596f752067657420566572666965640000000000000000602082015250565b6000613da1603883612862565b9150613dac82613d45565b604082019050919050565b60006020820190508181036000830152613dd081613d94565b9050919050565b600060a082019050613dec6000830188612848565b8181036020830152613dfe81876128ae565b9050613e0d6040830186612848565b8181036060830152613e1f81856128ae565b9050613e2e6080830184612848565b9695505050505050565b7f596f7520417265204e6f7420456c696769626c6520746f20427579206f72205360008201527f656c6c204c616e64000000000000000000000000000000000000000000000000602082015250565b6000613e94602883612862565b9150613e9f82613e38565b604082019050919050565b60006020820190508181036000830152613ec381613e87565b9050919050565b7f50726f766964652055722046756c6c204e616d65000000000000000000000000600082015250565b6000613f00601483612862565b9150613f0b82613eca565b602082019050919050565b60006020820190508181036000830152613f2f81613ef3565b9050919050565b7f50726f7669646520612056616c69642055736572204164647265737300000000600082015250565b6000613f6c601c83612862565b9150613f7782613f36565b602082019050919050565b60006020820190508181036000830152613f9b81613f5f565b9050919050565b7f50726f76696465203132204469676974204164686172204e756d626572000000600082015250565b6000613fd8601d83612862565b9150613fe382613fa2565b602082019050919050565b6000602082019050818103600083015261400781613fcb565b9050919050565b7f50726f766964652031302044696769742050616e204e756d6265720000000000600082015250565b6000614044601b83612862565b915061404f8261400e565b602082019050919050565b6000602082019050818103600083015261407381614037565b9050919050565b7f70726f7669646520302e303120457468657220746f2072656769737465720000600082015250565b60006140b0601e83612862565b91506140bb8261407a565b602082019050919050565b600060208201905081810360008301526140df816140a3565b9050919050565b600060a082019050818103600083015261410081886128ae565b905061410f6020830187612848565b818103604083015261412181866128ae565b9050818103606083015261413581856128ae565b9050818103608083015261414981846128ae565b9050969550505050505056fea2646970667358221220fb6c71e40d0bb711b20217a1499eed541744308fa1336d1b9a69ca901ce7e04a64736f6c63430008110033",
    "linkReferences": {},
    "deployedLinkReferences": {}
}